{
  "_format": "hh-sol-artifact-1",
  "contractName": "Product",
  "sourceName": "contracts/Product.sol",
  "abi": [
    {
      "inputs": [
        {
          "internalType": "string",
          "name": "_productName",
          "type": "string"
        },
        {
          "internalType": "string",
          "name": "_companyName",
          "type": "string"
        },
        {
          "internalType": "uint256",
          "name": "_initialStock",
          "type": "uint256"
        },
        {
          "internalType": "address",
          "name": "_companyAddress",
          "type": "address"
        },
        {
          "internalType": "uint256",
          "name": "_warrentyPeriod",
          "type": "uint256"
        }
      ],
      "stateMutability": "nonpayable",
      "type": "constructor"
    },
    {
      "anonymous": false,
      "inputs": [
        {
          "indexed": true,
          "internalType": "address",
          "name": "owner",
          "type": "address"
        },
        {
          "indexed": true,
          "internalType": "uint256",
          "name": "tokenId",
          "type": "uint256"
        },
        {
          "indexed": false,
          "internalType": "uint256",
          "name": "timestamp",
          "type": "uint256"
        }
      ],
      "name": "Burned",
      "type": "event"
    },
    {
      "anonymous": false,
      "inputs": [
        {
          "indexed": true,
          "internalType": "address",
          "name": "to",
          "type": "address"
        },
        {
          "indexed": true,
          "internalType": "uint256",
          "name": "tokenId",
          "type": "uint256"
        },
        {
          "indexed": false,
          "internalType": "uint256",
          "name": "timestamp",
          "type": "uint256"
        }
      ],
      "name": "Minted",
      "type": "event"
    },
    {
      "inputs": [
        {
          "internalType": "uint256",
          "name": "_stock",
          "type": "uint256"
        }
      ],
      "name": "addSupply",
      "outputs": [],
      "stateMutability": "nonpayable",
      "type": "function"
    },
    {
      "inputs": [],
      "name": "burnNFT",
      "outputs": [],
      "stateMutability": "nonpayable",
      "type": "function"
    },
    {
      "inputs": [
        {
          "internalType": "address",
          "name": "_holderAddress",
          "type": "address"
        }
      ],
      "name": "checkExpiryDate",
      "outputs": [
        {
          "internalType": "string",
          "name": "",
          "type": "string"
        },
        {
          "internalType": "uint256",
          "name": "",
          "type": "uint256"
        }
      ],
      "stateMutability": "view",
      "type": "function"
    },
    {
      "inputs": [
        {
          "internalType": "address",
          "name": "_holderAddress",
          "type": "address"
        }
      ],
      "name": "checkValidity",
      "outputs": [
        {
          "internalType": "bool",
          "name": "",
          "type": "bool"
        }
      ],
      "stateMutability": "view",
      "type": "function"
    },
    {
      "inputs": [],
      "name": "endSupply",
      "outputs": [
        {
          "internalType": "bool",
          "name": "",
          "type": "bool"
        }
      ],
      "stateMutability": "nonpayable",
      "type": "function"
    },
    {
      "inputs": [],
      "name": "ended",
      "outputs": [
        {
          "internalType": "bool",
          "name": "",
          "type": "bool"
        }
      ],
      "stateMutability": "view",
      "type": "function"
    },
    {
      "inputs": [
        {
          "internalType": "address",
          "name": "",
          "type": "address"
        },
        {
          "internalType": "uint256",
          "name": "",
          "type": "uint256"
        }
      ],
      "name": "mapWarrentyValidity",
      "outputs": [
        {
          "internalType": "uint256",
          "name": "",
          "type": "uint256"
        }
      ],
      "stateMutability": "view",
      "type": "function"
    },
    {
      "inputs": [
        {
          "internalType": "string",
          "name": "tokenURI",
          "type": "string"
        }
      ],
      "name": "mintNFT",
      "outputs": [
        {
          "internalType": "uint256",
          "name": "",
          "type": "uint256"
        }
      ],
      "stateMutability": "nonpayable",
      "type": "function"
    },
    {
      "inputs": [],
      "name": "mintedTokens",
      "outputs": [
        {
          "internalType": "uint256",
          "name": "",
          "type": "uint256"
        }
      ],
      "stateMutability": "view",
      "type": "function"
    },
    {
      "inputs": [],
      "name": "name",
      "outputs": [
        {
          "internalType": "string",
          "name": "",
          "type": "string"
        }
      ],
      "stateMutability": "view",
      "type": "function"
    },
    {
      "inputs": [
        {
          "internalType": "uint256",
          "name": "tokenId",
          "type": "uint256"
        }
      ],
      "name": "ownerOf",
      "outputs": [
        {
          "internalType": "address",
          "name": "",
          "type": "address"
        }
      ],
      "stateMutability": "view",
      "type": "function"
    },
    {
      "inputs": [],
      "name": "remainingSupply",
      "outputs": [
        {
          "internalType": "uint256",
          "name": "",
          "type": "uint256"
        }
      ],
      "stateMutability": "view",
      "type": "function"
    },
    {
      "inputs": [],
      "name": "supplyLimit",
      "outputs": [
        {
          "internalType": "uint256",
          "name": "",
          "type": "uint256"
        }
      ],
      "stateMutability": "view",
      "type": "function"
    },
    {
      "inputs": [],
      "name": "symbol",
      "outputs": [
        {
          "internalType": "string",
          "name": "",
          "type": "string"
        }
      ],
      "stateMutability": "view",
      "type": "function"
    },
    {
      "inputs": [
        {
          "internalType": "address",
          "name": "owner",
          "type": "address"
        }
      ],
      "name": "tokenOf",
      "outputs": [
        {
          "internalType": "uint256",
          "name": "",
          "type": "uint256"
        }
      ],
      "stateMutability": "view",
      "type": "function"
    },
    {
      "inputs": [
        {
          "internalType": "uint256",
          "name": "tokenId",
          "type": "uint256"
        }
      ],
      "name": "tokenURI",
      "outputs": [
        {
          "internalType": "string",
          "name": "",
          "type": "string"
        }
      ],
      "stateMutability": "view",
      "type": "function"
    }
  ],
  "bytecode": "0x60806040523480156200001157600080fd5b5060405162001202380380620012028339810160408190526200003491620001ff565b8451859085906200004d906000906020850190620000a6565b50805162000063906001906020840190620000a6565b5050506008839055600992909255600680546001600160a01b0319166001600160a01b03929092169190911790556007555050600a805460ff19169055620002ef565b828054620000b4906200029c565b90600052602060002090601f016020900481019282620000d8576000855562000123565b82601f10620000f357805160ff191683800117855562000123565b8280016001018555821562000123579182015b828111156200012357825182559160200191906001019062000106565b506200013192915062000135565b5090565b5b8082111562000131576000815560010162000136565b600082601f8301126200015d578081fd5b81516001600160401b03808211156200017a576200017a620002d9565b604051601f8301601f19908116603f01168101908282118183101715620001a557620001a5620002d9565b81604052838152602092508683858801011115620001c1578485fd5b8491505b83821015620001e45785820183015181830184015290820190620001c5565b83821115620001f557848385830101525b9695505050505050565b600080600080600060a0868803121562000217578081fd5b85516001600160401b03808211156200022e578283fd5b6200023c89838a016200014c565b9650602088015191508082111562000252578283fd5b5062000261888289016200014c565b60408801516060890151919650945090506001600160a01b038116811462000287578182fd5b80925050608086015190509295509295909350565b600181811c90821680620002b157607f821691505b60208210811415620002d357634e487b7160e01b600052602260045260246000fd5b50919050565b634e487b7160e01b600052604160045260246000fd5b610f0380620002ff6000396000f3fe608060405234801561001057600080fd5b50600436106101005760003560e01c80636352211e116100975780639ff56acc116100665780639ff56acc14610201578063c87b56dd14610222578063da0239a614610235578063fb37e8831461023d57600080fd5b80636352211e146101be578063740ea8ab146101e95780638d75fe05146101f157806395d89b41146101f957600080fd5b806319d1997a116100d357806319d1997a1461018657806340753a761461018e57806342ec38e2146101a357806350847a33146101b657600080fd5b806306fdde03146101055780630a9857671461012357806312fa6feb1461015c578063171ee9f314610173575b600080fd5b61010d610250565b60405161011a9190610d83565b60405180910390f35b61014e610131366004610c4d565b600b60209081526000928352604080842090915290825290205481565b60405190815260200161011a565b600a5460ff165b604051901515815260200161011a565b610163610181366004610c2c565b6102e2565b60085461014e565b6101a161019c366004610d20565b61033f565b005b61014e6101b1366004610c2c565b61038c565b6101636103d0565b6101d16101cc366004610d20565b610464565b6040516001600160a01b03909116815260200161011a565b6101a16104e6565b61014e61059b565b61010d6105ab565b61021461020f366004610c2c565b6105ba565b60405161011a929190610d96565b61010d610230366004610d20565b6106d5565b60095461014e565b61014e61024b366004610c76565b6107da565b60606000805461025f90610e66565b80601f016020809104026020016040519081016040528092919081815260200182805461028b90610e66565b80156102d85780601f106102ad576101008083540402835291602001916102d8565b820191906000526020600020905b8154815290600101906020018083116102bb57829003601f168201915b5050505050905090565b6007546001600160a01b0382166000908152600b602052604081209091908261030a8561038c565b8152602001908152602001600020546103239190610e37565b42101561033257506001919050565b506000919050565b919050565b6006546001600160a01b031633146103725760405162461bcd60e51b815260040161036990610db8565b60405180910390fd5b80600860008282546103849190610e37565b909155505050565b60006001600160a01b0382166103b45760405162461bcd60e51b815260040161036990610e00565b506001600160a01b031660009081526003602052604090205490565b6006546000906001600160a01b031633146103fd5760405162461bcd60e51b815260040161036990610db8565b600a5460ff16156104505760405162461bcd60e51b815260206004820152601860248201527f537570706c792068617320616c726561647920656e64656400000000000000006044820152606401610369565b50600a805460ff1916600190811790915590565b6000816104ab5760405162461bcd60e51b8152602060048201526015602482015274496e76616c696420746f6b656e49642076616c756560581b6044820152606401610369565b6000828152600260205260409020546001600160a01b0316806104e05760405162461bcd60e51b815260040161036990610e00565b92915050565b600754336000818152600b60205260408120916105029061038c565b81526020019081526020016000205461051b9190610e37565b42116105885760405162461bcd60e51b815260206004820152603660248201527f596f75722077617272656e7479206973206e6f742065787069726564207965746044820152750b0818d85b9b9bdd08189d5c9b881e5bdd5c8813919560521b6064820152608401610369565b6105996105943361038c565b6108ea565b565b60006105a660055490565b905090565b60606001805461025f90610e66565b6007546001600160a01b0382166000908152600b6020526040812060609290826105e38661038c565b8152602001908152602001600020546105fc9190610e37565b42101561066c576007546001600160a01b0384166000908152600b60205260408120906106288661038c565b8152602001908152602001600020546106419190610e37565b60408051808201909152600b81526a22bc3834b932b99037b71d60a91b602082015294909350915050565b6007546001600160a01b0384166000908152600b60205260408120906106918661038c565b8152602001908152602001600020546106aa9190610e37565b60408051808201909152600b81526a22bc3834b932b21037b71d60a91b602082015294909350915050565b6000818152600260205260409020546060906001600160a01b031661073c5760405162461bcd60e51b815260206004820152601f60248201527f55524920717565727920666f72206e6f6e6578697374656e7420746f6b656e006044820152606401610369565b6000828152600460205260409020805461075590610e66565b80601f016020809104026020016040519081016040528092919081815260200182805461078190610e66565b80156107ce5780601f106107a3576101008083540402835291602001916107ce565b820191906000526020600020905b8154815290600101906020018083116107b157829003601f168201915b50505050509050919050565b600a5460009060ff16156108235760405162461bcd60e51b815260206004820152601060248201526f4e6f206c6f6e6765722065786973747360801b6044820152606401610369565b6008546005541061086c5760405162461bcd60e51b81526020600482015260136024820152724e6f20737570706c792063757272656e746c7960681b6044820152606401610369565b61087a600580546001019055565b60016009600082825461088d9190610e4f565b909155506108a59050336108a060055490565b610966565b6108b76108b160055490565b83610af4565b336000908152600b6020526040812042916108d160055490565b81526020810191909152604001600020556005546104e0565b60006108f582610464565b6001600160a01b0381166000818152600360209081526040808320839055868352600282529182902080546001600160a01b0319169055905142815292935084927f23ff0e75edf108e3d0392d92e13e8c8a868ef19001bd49f9e94876dc46dff87f91015b60405180910390a35050565b6001600160a01b03821661098c5760405162461bcd60e51b815260040161036990610e00565b806109d95760405162461bcd60e51b815260206004820152601760248201527f546f6b656e2049442063616e6e6f74206265207a65726f0000000000000000006044820152606401610369565b6000818152600260205260409020546001600160a01b031615610a355760405162461bcd60e51b8152602060048201526014602482015273151bdad95b88185b1c9958591e481b5a5b9d195960621b6044820152606401610369565b610a3e8261038c565b15610a8b5760405162461bcd60e51b815260206004820152601960248201527f4f776e657220616c726561647920686173206120746f6b656e000000000000006044820152606401610369565b6001600160a01b0382166000818152600360209081526040808320859055848352600282529182902080546001600160a01b0319168417905590514281528392917f25b428dfde728ccfaddad7e29e4ac23c24ed7fd1a6e3e3f91894a9a073f5dfff910161095a565b6000828152600260205260409020546001600160a01b0316610b585760405162461bcd60e51b815260206004820152601c60248201527f55524920736574206f66206e6f6e6578697374656e7420746f6b656e000000006044820152606401610369565b60008281526004602090815260409091208251610b7792840190610b7c565b505050565b828054610b8890610e66565b90600052602060002090601f016020900481019282610baa5760008555610bf0565b82601f10610bc357805160ff1916838001178555610bf0565b82800160010185558215610bf0579182015b82811115610bf0578251825591602001919060010190610bd5565b50610bfc929150610c00565b5090565b5b80821115610bfc5760008155600101610c01565b80356001600160a01b038116811461033a57600080fd5b600060208284031215610c3d578081fd5b610c4682610c15565b9392505050565b60008060408385031215610c5f578081fd5b610c6883610c15565b946020939093013593505050565b600060208284031215610c87578081fd5b813567ffffffffffffffff80821115610c9e578283fd5b818401915084601f830112610cb1578283fd5b813581811115610cc357610cc3610eb7565b604051601f8201601f19908116603f01168101908382118183101715610ceb57610ceb610eb7565b81604052828152876020848701011115610d03578586fd5b826020860160208301379182016020019490945295945050505050565b600060208284031215610d31578081fd5b5035919050565b60008151808452815b81811015610d5d57602081850181015186830182015201610d41565b81811115610d6e5782602083870101525b50601f01601f19169290920160200192915050565b602081526000610c466020830184610d38565b604081526000610da96040830185610d38565b90508260208301529392505050565b60208082526028908201527f46756e6374696f6e2061636365737369626c65206f6e6c7920627920746865206040820152676f776e657220212160c01b606082015260800190565b6020808252601d908201527f496e76616c6964206f776e6572206174207a65726f2061646472657373000000604082015260600190565b60008219821115610e4a57610e4a610ea1565b500190565b600082821015610e6157610e61610ea1565b500390565b600181811c90821680610e7a57607f821691505b60208210811415610e9b57634e487b7160e01b600052602260045260246000fd5b50919050565b634e487b7160e01b600052601160045260246000fd5b634e487b7160e01b600052604160045260246000fdfea26469706673582212206f89d102220d2888c2fd36c091311c330a78e5b3d9565e964c701a79ef7f5fb164736f6c63430008040033",
  "linkReferences": {},
  "deployedLinkReferences": {}
}